:020000040800F2
:10000000D8BE0120AD020008172400081D04000816
:10001000152400082F0400082935000800000000FE
:10002000000000000000000000000000652600083D
:100030007104000800000000192400086926000867
:10004000C7020008C7020008C7020008C70200086C
:10005000C7020008C7020008C7020008C70200085C
:10006000C7020008C7020008C7020008C70200084C
:10007000C7020008C7020008C7020008C70200083C
:10008000C7020008C7020008C7020008C70200082C
:10009000C7020008C7020008C7020008C70200081C
:1000A000C7020008C7020008C7020008C70200080C
:1000B000F5270008C7020008C7020008C7020008A9
:1000C000C7020008C7020008C7020008C7020008EC
:1000D000C7020008D1330008C7020008C7020008A1
:1000E000C7020008C702000800000000C70200089D
:1000F000C7020008C7020008C7020008C7020008BC
:10010000C7020008C7020008C7020008C7020008AB
:10011000C7020008C7020008C7020008C70200089B
:10012000C7020008C7020008C7020008C70200088B
:10013000C7020008C7020008C7020008C70200087B
:1001400000000000000000000000000000000000AF
:10015000C7020008C7020008C7020008C70200085B
:10016000C7020008C7020008C7020008C70200084B
:10017000C7020008C7020008C7020008000000000C
:10018000C7020008C7020008C7020008C70200082B
:10019000C7020008C7020008C7020008C70200081B
:1001A000C7020008C7020008C7020008C70200080B
:1001B000C7020008C7020008C7020008C7020008FB
:1001C000C7020008C7020008C7020008C7020008EB
:1001D000C7020008C7020008C7020008C7020008DB
:1001E000C7020008C7020008C7020008C7020008CB
:1001F000C7020008C7020008C7020008C7020008BB
:10020000C7020008C7020008C7020008C7020008AA
:10021000C7020008C7020008C7020008C70200089A
:10022000C7020008C7020008C7020008000000005B
:10023000C7020008C702000800000000C70200084B
:10024000C7020008C7020008C7020008C70200086A
:10025000C7020008C7020008C7020008C70200085A
:10026000C7020008C7020008C7020008C70200084A
:10027000C7020008C7020008C7020008000000000B
:10028000C702000800000000C702000800000000CC
:1002900000000000C7020008DFF80CD000F08EF864
:1002A00000480047FD4E0008D8BE012006488047A0
:1002B00006480047FEE7FEE7FEE7FEE7FEE7FEE74B
:1002C000FEE7FEE7FEE7FEE749270008990200087F
:1002D0002DE9F05F0546002092469B46884606467B
:1002E000814640241BE0284641464746224600F00E
:1002F00054F853465A46C01A914110D31146184635
:10030000224600F03BF82D1A67EB01084F462246C3
:100310000120002100F032F817EB00094E41201EA9
:10032000A4F10104DFDC484631462A464346BDE8D5
:10033000F09F00000649074A0868504343F239021B
:100340001044086040087047014908607047000089
:10035000380000206D4EC641D2B201E000F8012BFA
:10036000491EFBD270470022F6E710B513460A4635
:1003700004461946FFF7F0FF204610BD202A04DB93
:10038000203A00FA02F1002070479140C2F12003A8
:1003900020FA03F3194390407047202A04DB203AE7
:1003A00021FA02F00021704721FA02F3D040C2F195
:1003B000200291400843194670470000064C074D43
:1003C00006E0E06840F0010394E807009847103425
:1003D000AC42F6D3FFF764FFE4530008345400083E
:1003E00030B58C1810F8012B12F00F0301D110F862
:1003F000013B120906D110F8012B03E010F8015B54
:1004000001F8015B5B1EF9D101E001F8013B521ECE
:10041000FBD1A142E6D3002030BD00001EF0040F46
:100420000CBFEFF30880EFF3098001F01FBFFEE778
:10043000002804BF0C487047012818BF022808D0C4
:10044000032818BF042804D005281CBF0628072845
:1004500002D14FF00000704704484FF48E7110B580
:1004600000F007F8002010BD68A6012088440008AD
:100470007047002908BF7047FEE7000070B4B3F56D
:10048000804F18BF6FF0704105D000BF40F82210B8
:1004900070BC002070478D688C89D1E9003C2E0229
:1004A0008D6950F8221046EA044443EA0C1C044BC0
:1004B0004CEA040C19404CEA05031943E6E7000036
:1004C0000000F0CF2DE9F003D1E90225D1E9046362
:1004D0004C68082A45EA060744EA020848EA070287
:1004E000D1E906C542EA03020B68D1E9086442EA91
:1004F0000C02D1F830C0D1E90A7842EA05028D6BCE
:1005000042EA060650F8232046EA0406144C46EA5E
:100510000706D1F8349046EA080646EA0C0C4CEA85
:10052000050C02EA04024CEA090C4CEA020208BF7C
:1005300042F0400240F823200A6BB2F5801F05D13B
:100540000A684AB1026842F4801202600A681AB16D
:100550000268496B11430160BDE8F0030020704759
:100560008004C0FF2DE9F001D1E901438F8900EB40
:100570008202D1F800C00D8A1E02154B4CEA041C01
:100580000C7D46EA07464CEA0606D2F804C05F0135
:1005900003EB05588D6946EA080607EB046434430B
:1005A0002C430CF0404C44EA0C0CC2F804C0026826
:1005B00012F4801F07D00A8A416803EB025221F42B
:1005C000700111434160BDE8F00100207047000058
:1005D0000000F0FF0248016841F00101016070472E
:1005E000200400582DE9F84F904C002201274FF0CD
:1005F000030B4FF00F0800BF0B6807FA02FC03EA79
:100600000C03634540F00B814D68022D18BF122D7D
:1006100013D14FEAD205D1F810A04FEA427900EB8E
:1006200085052E6A4FEAD96908FA09FE0AFA09F91E
:1006300026EA0E0649EA06062E6291F804A04FEA61
:100640004205D0F800900AF0030A0BFA05F60AFA00
:1006500005FA29EA06094AEA0909C0F80090D1F822
:100660000490B9F1010F18BFB9F1020F05D0B9F12B
:10067000110F18BFB9F1120F19D1D0F80890D1F8A5
:100680000CA029EA06090AFA05FA4AEA0909C0F89B
:100690000890D0F8049091F804A029EA0C0CCAF351
:1006A000001A0AFA02F949EA0C0CC0F804C0D0F8A2
:1006B0000CC0D1F808902CEA060C09FA05F545EAB9
:1006C0000C0CC0F80CC0D1F804C01CF0805F7AD0CC
:1006D000DFF85CC122F00305DCF800904FEA827677
:1006E00049F00209CCF800904FEA1676DCF800C019
:1006F00005F1B0450CF0020CCDF800C008FA06F97F
:10070000D5F808C4A0F1B04ABAF5003A2CEA090CB1
:1007100008BF4FF0000948D0A0F1B049B9F5013940
:1007200008BF4FF0010940D0A0F1B049B9F5023936
:1007300008BF4FF0020938D0A0F1B049B9F503392C
:1007400008BF4FF0030930D0A0F1B049B9F5043922
:1007500008BF4FF0040928D0A0F1B049B9F5053918
:1007600008BF4FF0050920D0A0F1B049B9F506390E
:1007700008BF4FF0060918D0A0F1B049B9F5073904
:1007800008BF4FF0070910D0A0F1B049B9F50839FA
:1007900008BF4FF0080908D0A0F1B049B9F50939F0
:1007A0000CBF4FF009094FF00A0909FA06F646EAAC
:1007B0000C0CC5F808C4D4F800C04D682CEA030C32
:1007C00015F4803F00E02AE018BF4CEA030CC4F89F
:1007D00000C0D4F804C04D682CEA030C15F4003FA7
:1007E00018BF4CEA030CC4F804C04FF0B0454E6883
:1007F000D5F800C016F4801F2CEA030C18BF4CEA91
:10080000030CC5F800C04E68D5F804C016F4001FEC
:100810002CEA030C18BF4CEA030CC5F804C0521CA8
:10082000102AFFF4E9AEBDE8F88F00008000005800
:10083000F4440258014880687047000020000020FE
:1008400002488168027811448160704720000020CE
:10085000032010B500F0BEF80F2000F009F80028C2
:100860001CBF012010BD00F075F8002010BD000075
:1008700070B50D4D04464FF47A700C4A2978126811
:10088000B0FBF1F0B2FBF0F001F062FC48B9102CC3
:1008900007D200222146501E00F06CF800206C6048
:1008A00070BD012070BD0000200000202C00002041
:1008B000DFF858C0F0B443780CF10402111DCCF8F5
:1008C00000300378002B04BF002010601BD0436869
:1008D0001360057BC37A827A90F80DC02F07847B62
:1008E00047EA0367C57B47EAC242467A42EA8C423E
:1008F000037A42EA444242EA0542007842EA06228A
:1009000042EA430210430860F0BC704798ED00E0F3
:10091000BFF35F8F044800210368044A23F4803347
:10092000036011607047000024ED00E094ED00E0EA
:10093000074A40F0010005491060086840F4803023
:100940000860BFF34F8FBFF36F8F704724ED00E057
:1009500094ED00E070470028B8BF7047410900F0EF
:100960001F008A00012102F1E02201FA00F0C2F822
:1009700000017047164B30B41B68C3F30223C3F168
:10098000070CBCF1040F88BF4FF0040C1C1D072C92
:1009900034BF0023DB1E012404FA0CFC04FA03F527
:1009A000ACF101042140A5F1010C99400CEA0202CE
:1009B000114300284FEA0111B8BF00F00F0000F109
:1009C000E020ACBF80F8001480F8141D30BC7047E4
:1009D0000CED00E0074900F007004FF6FF030A683E
:1009E0001A4042EA002040F0FD7040F0806008604C
:1009F000704700000CED00E010B500F0C9FF084999
:100A00004FF480730A6893FAA3F3064902F4706204
:100A1000B3FA83F3DA40044B9A5CD040086010BD0F
:100A2000184402582C0000203853000810B500F07C
:100A300041FF07491022096892FAA2F201F0700101
:100A4000B2FA82F2D140034A515CC84010BD0000A6
:100A50002044025838530008564A30B4564C02F12C
:100A6000040C1368DFED550A1268211FB7EE001A57
:100A7000DCF80050246813F0030C05F01003C2F3F7
:100A80000532C4F3CC0414FB03F300EE103AB8EEC5
:100A9000400A1BD04A4BBCF1010F02D0BCF1020F3F
:100AA00046D0D1F800C0B3FBF2F2CCF3080C01EE53
:100AB00090CAB8EE612A01EE902A00EE202AB8EE24
:100AC000610A72EE010A20EE200A46E03D4BDFF893
:100AD000F8C01C6814F0200F16D01C680B68C4F313
:100AE000C104C3F3080301EE903A2CFA04F3B3FBFC
:100AF000F2F2F8EE611A40EE201A00EE102A71EEC2
:100B0000810AB8EE400A10E00B68BCFBF2F2C3F3B6
:100B1000080301EE903AB8EE612A01EE902A00EE49
:100B2000202AB8EE610A72EE010A20EE200A14E0D3
:100B3000DFF898C00B68BCFBF2F2C3F3080301EEC8
:100B4000903AB8EE612A01EE902A00EE202AB8EE23
:100B5000610A72EE010A20EE200A0A68C2F34622F8
:100B6000521C00EE902AF8EE600A80EE201AFCEE8D
:100B7000C10AC0ED000A0A68C2F30642521C00EE28
:100B8000902AF8EE600A80EE201AFCEEC10AC0ED51
:100B9000010A0968C1F30661491C00EE901AF8EEDB
:100BA000600A80EE201ABCEEC10A80ED020A30BC59
:100BB00070470000284402583C44025800000039A5
:100BC00000093D00004402580090D00340787D01A8
:100BD000564A30B4564C02F1040C1368DFED550A46
:100BE0001268211FB7EE001ADCF80050246813F0D9
:100BF000030C05F48073C2F30552C4F3CC0414FB58
:100C000003F300EE103AB8EE400A1BD04A4BBCF199
:100C1000010F02D0BCF1020F46D0D1F800C0B3FBE7
:100C2000F2F2CCF3080C01EE90CAB8EE612A01EEA4
:100C3000902A00EE202AB8EE610A72EE010A20EE38
:100C4000200A46E03D4BDFF8F8C01C6814F0200F86
:100C500016D01C680B68C4F3C104C3F3080301EE8B
:100C6000903A2CFA04F3B3FBF2F2F8EE611A40EE7C
:100C7000201A00EE102A71EE810AB8EE400A10E048
:100C80000B68BCFBF2F2C3F3080301EE903AB8EE36
:100C9000612A01EE902A00EE202AB8EE610A72EE77
:100CA000010A20EE200A14E0DFF898C00B68BCFBB4
:100CB000F2F2C3F3080301EE903AB8EE612A01EEB6
:100CC000902A00EE202AB8EE610A72EE010A20EEA8
:100CD000200A0A68C2F34622521C00EE902AF8EE5F
:100CE000600A80EE201AFCEEC10AC0ED000A0A6814
:100CF000C2F30642521C00EE902AF8EE600A80EE23
:100D0000201AFCEEC10AC0ED010A0968C1F30661B0
:100D1000491C00EE901AF8EE600A80EE201ABCEE34
:100D2000C10A80ED020A30BC704700002844025816
:100D3000444402580000003900093D0000440258B4
:100D40000090D00340787D012DE9F05F0025044636
:100D500000682E46FD4FDFF8F88310F0006F1FD0BB
:100D6000606E58B1B0F5801F0DD0B0F5001F0FD0E8
:100D7000B0F5401F18BF01251ED010E0386840F4C0
:100D80000030386018E00221201D01F047FB04E02C
:100D9000022104F1240001F0D3FB05000CD02E4603
:100DA000208810F4807F24D0606D05281FD2DFE8F2
:100DB00000F00C11161C1C00606ED8F8001021F415
:100DC00040110843C8F80000EAE7386840F40030F2
:100DD00038600AE00021201D01F020FB04E0002122
:100DE00004F1240001F0ACFB05467DB100E00125D3
:100DF0002E43208810F4007F2BD0A06D802820D0B7
:100E00000DDC90B1402815D0012521E0606DD8F8A7
:100E1000001021F007010843C8F80000E9E7C028E6
:100E200018BFB0F5807FEFD111E0386840F4003092
:100E300038600CE004F104004FF0000101F0EEFA1C
:100E400004E0002104F1240001F07AFB054695B18D
:100E50002E432088DFF8FC9210F4806F2FD0D4F856
:100E6000A400B0F5800F22D00EDCA0B1B0F5001FB9
:100E700016D0012522E0A06DD8F8001021F4E07111
:100E80000843C8F80000E4E7B0F5C00F18BFB0F59C
:100E9000000FEED111E0386840F4003038600CE00B
:100EA00004F104004FF0000101F0B8FA04E0002161
:100EB00004F1240001F044FB054685B12E4320884F
:100EC00010F4006F30D0D4F8A800B0F1007F23D028
:100ED0000FDCA8B1B0F1807F17D0012523E0D4F852
:100EE000A410D9F8000020F460000843C9F80000FD
:100EF000E5E7B0F1407F18BFB0F1806FEDD111E0B0
:100F0000386840F4003038600CE004F104004FF021
:100F1000000101F083FA04E0002104F1240001F053
:100F20000FFB05467DB12E43206810F0007F20D0D6
:100F3000A06CE0B1102810D0202813D0302818BFA2
:100F4000012514D014E0D4F8A800D9F8001021F03D
:100F5000E0610843C9F80000E6E7386840F4003073
:100F6000386004E00221201D01F058FA05467DB1E9
:100F70002E43208810F4805F2DD0E06DB0F5005F27
:100F800021D00DDC98B1B0F5805F15D0012521E0AE
:100F90007148A16C026822F0300211430160E8E759
:100FA000B0F5405F18BFB0F5804FEFD111E0386861
:100FB00040F4003038600CE004F104004FF0000110
:100FC00001F02CFA04E0002104F1240001F0B8FA49
:100FD000054695B12E43208810F4005F2CD0206E7A
:100FE000B0F5403F26D011DC20B3B0F5803F14D0DF
:100FF000B0F5003F18D001251DE0E06DD8F80010D5
:1010000021F4E0410843C8F80000E4E7B0F5802F80
:1010100018BFB0F5A02FEED10CE004F104004FF0A2
:10102000010101F0FBF904E0012104F1240001F0C9
:1010300087FA05469DB12E43208810F4804F2DD0AD
:10104000D4F8AC00B0F1405F26D011DC20B3B0F191
:10105000805F14D0B0F1005F18D001251DE0216E33
:10106000D8F8000020F4E0200843C8F80000E3E7C7
:10107000B0F1804F18BFB0F1A04FEED10CE004F1F9
:1010800004004FF0010101F0C9F904E0012104F16D
:10109000240001F055FA05467DB12E43208810F456
:1010A000004F20D0E06EE0B1B0F1805F0FD0B0F122
:1010B000005F18BF01250FD014E0D4F8AC10D9F8A8
:1010C000000020F0E0400843C9F80000E6E7386877
:1010D00040F40030386004E00121201D01F09EF949
:1010E00005467DB12E43206810F0807F1FD0606CD4
:1010F000D8B101280FD0022812D0032818BF01252B
:1011000013D013E0E06ED8F8001021F040510843EE
:10111000C8F80000E7E7386840F40030386004E0C1
:101120000221201D01F07AF9054605B32E432068FF
:1011300010F4800F32D0DFF824A0DAF8000040F479
:101140008070CAF80000FFF775FB09E02C440258D4
:1011500050440258584402584C440258004802581F
:101160008346DAF8000010F4807F08D014E0FD48D0
:10117000616C026822F0030211430160D7E7FFF7B8
:1011800059FBA0EB0B00642801D9032505E0DAF830
:10119000000010F4807FF2D08DB12E432078DFF86C
:1011A000C8A310F0010F73D0A06F18286ED05BDCBD
:1011B000B0B308285DD0102862D0012567E0EB4865
:1011C000B4F8B020016802F4407001F4407181422B
:1011D0000CD0E6480168026821F4407142F4803284
:1011E0000260026822F4803202600160D4F8B0002C
:1011F000B0F5807F1AD1FFF71DFB8246DB480168FE
:1012000011F0020F08BF41F2883B0FD1FFF712FB2C
:10121000A0EB0A00584504D9032546F00306BDE7B4
:1012200034E0D248006810F0020FEFD0D4F8B000DC
:101230004FF4407181430DD0CD48016821F47C51B9
:101240000160CA48B4F8B0100268C1F30B01114341
:101250000160A3E7C649C74B0A6803EA101022F4ED
:101260007C5210430860ECE7202818BF2828A4D13E
:101270000CE004F104004FF0010101F0CFF804E0AC
:10128000012104F1240001F05BF9054665B12E430C
:10129000207810F0020F1FD0606F06281AD2DFE806
:1012A00000F0170C11171717A16FDAF8000020F0E3
:1012B00038000843CAF80000EAE70121201D01F0C8
:1012C000ADF804E0012104F1240001F039F90546EC
:1012D0007DB100E001252E43207810F0040F20D0CE
:1012E000D4F8900006281AD2DFE800F0170C111786
:1012F0001717616FDAF8000020F007000843CAF8FA
:101300000000E9E70121201D01F088F804E0012137
:1013100004F1240001F014F90546ADB100E0012507
:101320002E43207810F0200F2ED0D4F88C00B0F18E
:10133000405F27D012DC28B3B0F1805F15D0B0F148
:10134000005F19D001251EE0D4F89000D9F80010F4
:1013500021F007010843C9F80000E2E7B0F1804F2F
:1013600018BFB0F1A04FEDD10CE004F104004FF034
:10137000000101F053F804E0022104F1240001F01F
:10138000DFF805469DB12E43207810F0400F2ED097
:10139000D4F89800B0F5406F27D012DC28B3B0F530
:1013A000806F15D0B0F5006F19D001251EE0D4F87C
:1013B0008C10DAF8000020F0E0400843CAF8000082
:1013C000E2E7B0F5805F18BFB0F5A05FEDD10CE0AB
:1013D00004F104004FF0000101F020F804E00221C4
:1013E00004F1240001F0ACF805469DB12E432078AD
:1013F00010F0800F2ED0D4F89C00B0F5C04F27D04D
:1014000012DC28B3B0F5005F15D0B0F5804F19D0CD
:1014100001251EE0D4F89800D9F8001021F4E0511D
:101420000843C9F80000E2E7B0F5004F18BFB0F577
:10143000204FEDD10CE004F104004FF0000100F06A
:10144000EDFF04E0022104F1240001F079F80546E3
:1014500085B32E43207810F0080F0BD0D4F880000D
:10146000B0F5805F31D0DAF8001021F44051084324
:10147000CAF80000207810F0100F0BD0D4F89400B8
:10148000B0F5807F28D0D9F8001021F440710843CE
:10149000C9F80000206810F4002F31D0D4F8A00063
:1014A00008B3B0F5803F23D0B0F5003F18BF012549
:1014B00024D024E0FFE7D4F89C00D9F8001021F4F0
:1014C00060410843C9F80000C4E7022104F1240088
:1014D00001F036F80643CDE7022104F1240001F0C3
:1014E0002FF80643D6E70021201D00F097FF04E007
:1014F000022104F1240001F023F8054695B12E43A2
:10150000206810F4802F24D0D4F88400B0F5801F18
:1015100012D0B0F5001F14D0B0F5401F18BF012540
:1015200015D015E0D4F8A000D9F8001021F440310E
:101530000843C9F80000E3E7386840F40030386039
:1015400005E0012104F1240000F0FAFF0546BDB1D9
:101550002E43206810F4803F28D0E06CD0B1B0F565
:10156000803F09E04C4402585444025870440258E9
:1015700010440258CFFFFF0018BF01250FD014E020
:10158000D4F88400DAF8001021F440110843CAF8B6
:101590000000DEE7386840F40030386004E00221E3
:1015A000201D00F03BFF0546DDB12E43206810F002
:1015B000005F05D0022104F1240000F0C1FF0643C2
:1015C000206810F4003F1CD0E06FB8B1B0F5807F08
:1015D00010D0B0F5007F1CBFB0F5407F01250DD0C5
:1015E0000DE03148E16C026822F4803242EA0101E8
:1015F0000160DBE7386840F400303860F5B346EA54
:101600000506206810F4801F08D0206FD8F800105D
:1016100021F0004141EA0000C8F80000206810F005
:10162000805F08D02148D4F8B410026822F48042C8
:1016300042EA01010160206810F4001F08D0A06E8A
:10164000D8F8001021F0807141EA0000C8F80000CD
:10165000206810F0804F0AD01448016821F400413E
:1016600001600168D4F8B82041EA020101602068F5
:1016700010F0004F09D00C48216D00E00BE002682B
:1016800022F0405242EA01010160002E0CBF00200E
:101690000120BDE8F09FE06FDAF8001021F44071FE
:1016A0000843CAF80000ACE74C4402581044025802
:1016B0002DE9F047774F04468946386800F0070067
:1016C00048450AD2386820F0070040EA090038602F
:1016D000386800F00700484548D12078DFF8B88125
:1016E00010F0020F07D0E068D8F8001021F00F01C9
:1016F0000843C8F80000207810F0010F73D0674944
:10170000A068D8F8002022F470621043C8F80000E6
:101710006068022826D0032829D0096801282BD028
:1017200011F0040F6FD05E4E316821F007010843BD
:101730003060FFF77FF80546606841F2883A02287A
:101740001ED003282DD00128306800F0380038D092
:1017500030B300BFFFF76EF8401B50453FD9032060
:10176000BDE8F087096811F4003FDCD14BE009685F
:1017700011F0007FD7D146E011F4807FD3D142E051
:10178000306800F0380010282DD000BFFFF752F865
:10179000401B5045E3D8306800F038001028F5D1E0
:1017A00021E0306800F0380018281CD0FFF742F81C
:1017B000401B5045D3D8306800F038001828F5D1C8
:1017C00011E008280FD000BFFFF734F8401B504548
:1017D000C5D8306800F038000828F5D103E030683B
:1017E00010F0380FB6D1386800F0070048450DD921
:1017F000386820F0070040EA09003860386800F0D7
:101800000700484502D00120BDE8F087207810F09D
:10181000040F07D02069D8F8001021F070010843A8
:10182000C8F8000021781F4811F0080F05D0616941
:10183000026822F0700211430160217811F0100F4C
:1018400005D0A169026822F4E062114301602078AA
:1018500010F0200F06D01448E169026822F07002EF
:101860001143016000F094F8D8F800104FF4807232
:1018700092FAA2F201F47061B2FA82F2D1400B4AFC
:10188000515CC8400A4908600F20FEF7F1FF0020B4
:10189000BDE8F08700200052184402580044025866
:1018A000104402581C44025820440258385300087F
:1018B0002C00002010B5FFF79FF8084901230A68A3
:1018C00093FAA3F3064902F00F02B3FA83F3DA4066
:1018D000044B9A5CD040086010BD000018440258C8
:1018E000300000203853000870B5FFF785F80F4925
:1018F00001250C6895FAA5F50D494FF0100C04F080
:101900000F040C4AB5FA85F50B4B9CFAACFCEC4085
:10191000BCFA8CFC0C5DE04010601A6802F07002AA
:1019200022FA0CF2895CC84070BD000018440258CD
:1019300038530008300000201C44025870B5FFF7EF
:101940005BF80F4901250C6895FAA5F50D494FF490
:10195000807C04F00F040C4AB5FA85F50B4B9CFA19
:10196000ACFCEC40BCFA8CFC0C5DE04010601A68EA
:1019700002F4E06222FA0CF2895CC84070BD0000FB
:101980001844025838530008300000201C44025804
:1019900060482DE9F001DFF880C100685F4B10F06E
:1019A000380156D008294FEA2C1004BFBDE8F001D9
:1019B00070475B4C102902BF2046BDE8F00170471C
:1019C00018291CBFBDE8F00170475649564F0E1D3F
:1019D0000D689FED560A0968321DB7EE001AD6F859
:1019E00000803F6815F0030608F00105C1F30511FA
:1019F000C7F3CC0717FB05F500EE905AF8EE600A26
:101A000034D0012E5FD0022E70D01368B0FBF1F0FD
:101A1000C3F3080301EE903AB8EE612A01EE900A92
:101A200000EE802AB8EE610A72EE010A20EE200A6A
:101A30001068BDE8F001C0F34620401C00EE900A9B
:101A4000F8EE600A80EE201ABCEEC10A10EE100A11
:101A50007047186810F0200F1DBF1868C0F3C10050
:101A60002CFA00F06046BDE8F0017047186810F0ED
:101A7000200F16D01B681068C3F3C103C0F3080021
:101A800001EE900A2CFA03F0B0FBF1F0F8EE611AC7
:101A900040EE801A00EE100A71EE810AB8EE400A9C
:101AA00035E01068BCFBF1F1C0F3080001EE900ACC
:101AB000B8EE612A01EE901A00EE802AB8EE610AB3
:101AC00072EE010A23E01368B0FBF1F0C3F30803E0
:101AD00001EE903AB8EE612A01EE900A00EE802AFB
:101AE000B8EE610A72EE010A11E0FFE71068B4FB7C
:101AF000F1F1C0F3080001EE900AF8EE611A02EE6F
:101B0000101A40EE801AB8EE420A71EE810A20EEF9
:101B1000200A8DE7104402580090D0030044025878
:101B200040787D01284402583444025800000039AE
:101B30002DE9F05F04460078FA4F41F28838DFF86B
:101B4000E89310F0010FF94D5CD0386800F03800D0
:101B500010281ED0386800F03800182805D1D9F8B0
:101B6000000000F00300022813D06068B0F5803F49
:101B700004BF286840F4803014D010B1B0F5A02F15
:101B80001BD0286820F480302860286820F480204A
:101B900008E0286810F4003F34D06068002800F0A6
:101BA0009C822FE028606068D0B1FEF743FE0646B5
:101BB000286810F4003F08D024E0286840F4802012
:101BC0002860286840F48030ECE7FEF733FE801B85
:101BD000404500F2EE81286810F4003FF5D011E096
:101BE000FEF728FE0646286810F4003F0AD000BF22
:101BF000FEF720FE801B404500F2DB81286810F4D0
:101C0000003FF5D12078CA4E10F0020F79D0386825
:101C10004FF47C3B10F0380F19D0386800F03800D2
:101C2000182804BFD9F8000010F0030F0FD0E068A7
:101C3000C0B3296821F0190141EA00002860FEF7CD
:101C4000F9FD8246286810F0040F2CD036E0286891
:101C500010F0040F03D0E068002800F03E82E06836
:101C6000296821F0190108432860FEF7E3FD824648
:101C7000286810F0040F0AD1FEF7DCFDA0EB0A0083
:101C8000022800F29681286810F0040FF4D0216930
:101C900030689BFAABF2B2FA82F220F47C309140C9
:101CA000084316E017E0FEF7C5FDA0EB0A00022886
:101CB00000F27F81286810F0040FF4D022693168A7
:101CC0009BFAABF0B0FA80F021F47C3102FA00F01C
:101CD0000843306015E0286820F001002860FEF716
:101CE000A9FD8246286810F0040F0AD0FEF7A2FD75
:101CF000A0EB0A00022800F25C81286810F0040FB3
:101D0000F4D1207810F0100F53D038684FF0F84B12
:101D100000F03800082819D0386800F0380018287A
:101D200005D1D9F8000000F0030001280ED0E069C9
:101D30000028286829D040F080002860FEF77AFD4E
:101D40008246286810F4807F09D012E0286810F4D9
:101D5000807F1CBFE06980280BD000F0BEB9FEF781
:101D600069FDA0EB0A00022878D8286810F4807F6B
:101D7000F5D0206A31689BFAABF2B2FA82F221F018
:101D8000F84190400843306013E020F08000286064
:101D9000FEF750FD0646286810F4807F09D000BF8A
:101DA000FEF748FD801B022858D8286810F4807F71
:101DB000F6D1207810F0080F34D0DFF878A16069F0
:101DC0000028DAF8000016D040F00100CAF8000040
:101DD000FEF730FD0646DAF8000010F0020F21D1C0
:101DE000FEF728FD801B022838D8DAF8000010F032
:101DF000020FF5D016E020F00100CAF80000FEF74F
:101E000019FD0646DAF8000010F0020F0AD000BFF4
:101E1000FEF710FD801B022820D8DAF8000010F031
:101E2000020FF5D1207810F0200F2CD0A0690028E7
:101E3000286814D040F480502860FEF7FBFC06466A
:101E4000286810F4005F1ED1FEF7F4FC801B022806
:101E500004D8286810F4005FF6D014E08EE020F477
:101E600080502860FEF7E6FC0646286810F4005F04
:101E700009D000BFFEF7DEFC801B02287ED8286850
:101E800010F4005FF6D1207810F0040F78D0DFF85E
:101E9000A8A0DAF8000040F48070CAF80000FEF74D
:101EA000C9FC0646DAF8000010F4807F0AD100BFB2
:101EB000FEF7C0FC801B64287BD8DAF8000010F421
:101EC000807FF5D0A068DFF874A0012804BFDAF89D
:101ED000000040F001000CD008B1052816D0DAF857
:101EE000000020F00100CAF80000DAF8000020F03D
:101EF0000400CAF80000A06898B1FEF79BFC0646F3
:101F0000DAF8000010F0020F1AD039E0DAF8000019
:101F100040F00400CAF80000DAF8000040F00100C8
:101F2000E7E718E0104402582844025800440258D9
:101F3000044402587444025800480258704402583D
:101F4000FEF778FC801B404533D8DAF8000010F02B
:101F5000020FF5D014E0FEF76DFC0646DAF800003B
:101F600010F0020F0CD000BFFEF764FC801B404550
:101F70001FD8DAF8000010F0020F00E019E0F3D1EA
:101F8000606AE8B3396801F0380118297ED0022868
:101F9000286820F0807028600ED0FEF74BFC0446C5
:101FA000286810F0007F2BD0FEF744FC011B0229AB
:101FB0006DD90320BDE8F09FFEF73CFC064628687B
:101FC00010F0007F09D000BFFEF734FC801B022810
:101FD000EFD8286810F0007FF6D1E06AD9F8002029
:101FE000A16A22F0F30222F4407242EA0010084390
:101FF000C9F800004FF4FE0094F83430010200E00C
:1020000068E0B4F830904FEA4328268FA9F1010325
:1020100094F83C70A6F10109314AA8F50076A7F1C1
:102020000108C3F3080706F47E434FF6F8763B43F6
:1020300000EA0940184301EA08610843106096FA73
:10204000A6F102F1040CDCF80020B1FA81F1A36CD6
:1020500024486FF3CF0203FA01F11143CCF80010CA
:102060000268216C22F00C02114301600168626C6D
:1020700021F0020111430160016841F480310160E7
:10208000016841F400310160016801E025E01CE0D5
:1020900041F480210160016841F00101016028687C
:1020A00040F080702860FEF7C5FB0446286810F0F9
:1020B000007F0FD1FEF7BEFB001B02283FF679AF71
:1020C000286810F0007FF5D004E0286810F0007F49
:1020D0007FF46AAF0020BDE8F09F0120BDE8F09FCB
:1020E000304402582C440258002804BF0120704795
:1020F00070B5044690F8450015460E4628B90020F4
:1021000084F84400204600F021F8206804F108011A
:10211000FEF7D8F9A26831462068FEF723FAE36A91
:102120002946D4E90102FEF7A9F92168A068064A08
:1021300051F8203043F0010341F82030106840F09E
:1021400000401060002070BD004000527047000049
:10215000401EB0F1807F24BF012070474FF0E02186
:102160004861F020034A82F8140D0020072288619C
:102170000A6170470FE000E0002804BF01207047AB
:1021800010B5044690F83D0028B9002084F83C00C2
:10219000204600F00CF8022084F83D002068211D44
:1021A00000F078FB012084F83D00002010BD70474E
:1021B000022180F83D10012201680B8843F00103E1
:1021C0000B8080F83D2000207047002804BF0120CC
:1021D000704710B5044690F8790028B9002084F8BB
:1021E0007800204600F028F8242084F87900206840
:1021F000016821F001010160204600F051FD012835
:1022000008BF10BD606B00281CBF204600F0AAFC70
:102210002068416821F4904141602068816821F084
:102220002A0181602068016841F0010101602046B7
:10223000BDE8104000F003BD704700000249096886
:10224000084018BF012070471C00002000290549E4
:102250000A680CBF22EA00001043086008680249BF
:10226000086070471C000020001000602B490A68BD
:1022700012F0004F07D00A6842F000420A608169FC
:10228000891C81617047264A4DF8044D254C13681E
:1022900002F1040C521D23629CF800C0224B84F80A
:1022A00024C092F800C0521CC4F828C01B68E36226
:1022B0001388921D23860B681C4963631268A2630E
:1022C0000968E1631A490FF26C0C00231CF8032023
:1022D0000A85CA6912F0400FFBD05A1CD3B2292BD1
:1022E000F4D31F4900230B600A68002AFCD002685F
:1022F0002260426862608268A260C268E26002692D
:102300002261426962618269A261C069E0610B6019
:1023100008680028FCD05DF8044B70472CED00E005
:1023200024ED00E094AE012038ED00E03CED00E04B
:10233000001001400D0A456E746572204861726498
:102340004661756C745F48616E646C65722C2053D5
:10235000797374656D2048616C742E0D0A0000005D
:10236000340000202A49082870B48A891ED24FF010
:1023700000034FF0FF0C1A4601EBC2042568A68843
:102380002D69354018BF0125A479AC4202D15B1CF0
:102390009446DBB2521CD2B2082AEDD3012B08BFFF
:1023A00084451AD170BC4FF00100704713D1086802
:1023B0008B880069184018BF0120897981420CD1AF
:1023C000134880680069104018BF01201049897BBC
:1023D0008142E7D001E0092802D070BC002070479C
:1023E0000B4880680069104018BF01200849897BAC
:1023F0008142F2D1064901F110000969808809691A
:10240000084018BF01200249897D8142CAD0E4E713
:10241000B0520008FEE77047704700002DE9F04712
:10242000DFF80C918846032106460027D9F8000002
:1024300031EA000004BF0120BDE8F0873D4C206870
:1024400020F080602060FEF7F5F90546206810F066
:10245000006F08D0FEF7EEF9401B02285DD8206817
:1024600010F0006FF6D13068D9F8001021F47C31FB
:1024700041EA0030C9F800004FF4FE010A0296F864
:1024800008C0B588B6F80C9096F810A06D1E4FEAFB
:102490004C2C294BACF5007C2848A9F101090CF41F
:1024A0007E4CAAF1010AC5F3080501EA09414CEA8C
:1024B000050C02EA0A624CEA010111431960026844
:1024C000716922F0C002114301600168B26921F014
:1024D000200111430160B8F1000F14D00168B8F178
:1024E000010F0CBF41F4801141F40011016020681C
:1024F00040F080602060FEF79DF90546206810F0EE
:10250000006F05D010E0016841F400210160EEE7A2
:10251000FEF790F9401B022802D90320BDE8F0879E
:10252000206810F0006FF3D03846BDE8F087000057
:102530002844025800440258384402582C44025897
:102540002DE9F047DFF80C91884603210646002765
:10255000D9F8000031EA000004BF0120BDE8F0878F
:102560003D4C206820F080502060FEF763F905465E
:10257000206810F0005F08D0FEF75CF9401B0228CD
:102580005DD8206810F0005FF6D13088D9F80010CF
:1025900021F07C7141EA0050C9F800004FF4FE01BF
:1025A0000A0296F808C0B588B6F80C9096F810A004
:1025B0006D1E4FEA4C2C294BACF5007C2848A9F144
:1025C00001090CF47E4CAAF1010AC5F3080501EAE1
:1025D00009414CEA050C02EA0A624CEA0101114386
:1025E00019600268716922F4406211430160016858
:1025F000B26921F4007111430160B8F1000F14D0E9
:102600000168B8F1010F0CBF41F4000141F0807185
:102610000160206840F080502060FEF70BF905460D
:10262000206810F0005F05D010E0016841F48001DF
:102630000160EEE7FEF7FEF8401B022802D90320F6
:10264000BDE8F087206810F0005FF3D03846BDE8A1
:10265000F0870000284402580044025840440258C1
:102660002C4402587047000010B5FEF7E9F8044802
:102670004078002808BF10BDBDE8104000F002B847
:102680000000002070B52E4C0121606820B1606808
:10269000401E606008BF21702A48426852B14268FB
:1026A000521E426042682AB941700278012A04BF72
:1026B00082684260234A02F10C00136953B14368F7
:1026C0005B1E436043682BB941700378012B04BF44
:1026D0008368436002F11800D36953B143685B1EFD
:1026E000436043682BB941700378012B04BF8368B2
:1026F000436002F12400926A52B14268521E426065
:1027000042682AB941700178012904BF816841609B
:102710006FF00040A1680025491CA160A1688142BA
:1027200008BFA56001F085FEA078401CC0B2A07073
:102730000A2838BF70BDA570BDE8704001F077BEB3
:102740000000002038A60120214A70B42149D2F8A7
:1027500000C00020204B4CF4700CC2F800C0D1F82F
:1027600000C01E4A4CF0010CC1F800C01860D1F83E
:1027700000C01B4D0CEA02020A602B1D1C1DDFF875
:1027800064C028600CF104021860131D20601C1D39
:10279000CCF8000004F1040C10600CF10402186085
:1027A000131D20601C1DCCF8000010601860206014
:1027B0000B684FF0010C0D4C0B4A23F480230C4E98
:1027C00025030B601060C4F808C1356070BC704709
:1027D00088ED00E000440258104402587FEDF6EA0C
:1027E000184402582844025860440258008000519E
:1027F00008ED00E070B54FF08044254D2069E16898
:1028000010F0020F01F0020118BF002908D04FF6A6
:10281000FD702061E16801EA0000E060E86880473F
:102820002069E16810F0040F01F0040118BF0029CD
:1028300008D04FF6FB702061E16801EA0000E0601B
:10284000286980472069E16810F0080F01F008014D
:1028500018BF002908D04FF6F7702061E16801EA3F
:102860000000E060686980472069E16810F0100F9F
:1028700001F0100114BF002970BD4FF6EF70206108
:10288000E16801EA0000E060A869BDE87040004727
:10289000000000202DE9F003274B284FDFF8A0802F
:1028A00098420288DFF89C90DFF89CC018BFB0F116
:1028B000804F07D0B84218BF404503D0484518BFE5
:1028C000604504D14C6822F0700244EA02021F4CB9
:1028D0001F4D98421F4E18BFB0F1804F0CD0B84228
:1028E00018BF404508D0484518BF604504D0A042F5
:1028F0001CBFA842B04204D1CF6822F4407247EA1C
:1029000002028F8A22F08002984242EA0702028085
:102910008A68C2620A88028518BF604504D0A04256
:102920001CBFA842B04201D1098A01864FF00101C3
:102930004161BDE8F0037047000001400004004021
:1029400000080040000C004000040140004001402D
:1029500000440140004801402DE9F043B0F5A04F8C
:10296000044683B004D94FF4A04142A000F0DEFD3C
:1029700049480021224602F0BEFA474E474FB4B103
:1029800014F0010503D0FDF7D5FC30703870A54276
:102990000DD200BFFDF7CEFC70557855FDF7CAFC8F
:1029A000711948707919AD1CA5424870F2D33CA04A
:1029B00000F0BCFD3AA000F0B9FD434D4348D5F806
:1029C000048001AB424A21460090A2F5A04001F0EC
:1029D00007FE6A680100A2EB080006D03DA000F0E7
:1029E000A5FD03B00220BDE8F0834FF4C878019A3A
:1029F000B0FBF8F33EA0214600F098FD0199A142FA
:102A000006D345A000F092FD03B00020BDE8F0839E
:102A1000D5F804900020204A02AB009002F5A040B7
:102A200002F060F86A680100A2EB090004BF029A94
:102A3000A24218D1B0FBF8F301993CA0224600F065
:102A400075FD002C18BF002509D9785D715D88429D
:102A50001CBF40A000F06AFD6D1CA542F5D303B079
:102A60000020BDE8F0831BA000F060FD03B0012052
:102A7000BDE8F083BAAFCAFDB2CECAFD5F4C656E49
:102A8000B3ACB3F6D4CAD0EDB5C4D7EEB4F3D6B573
:102A900025640D0A00000000400000200200002410
:102AA0002D2D2D2D2D2D2D2D2D2D2D2D2D2D2D2D56
:102AB0002D2D2D2D2D2D2D2D2D2D2D2D2D2D2D2D46
:102AC0002D2D2D0D0A000000001000E088A500202B
:102AD00040500020C4DAB2BFB4EDCEF3202D20D197
:102AE000B9CBF5CAA7B0DC3A2025640D0A00000076
:102AF000D1B9CBF520256C7520D7D6BDDACEAA206A
:102B0000256C7520D7D6BDDAA3ACBAC4CAB125648A
:102B100075730D0A0000000020D3D0CEB4BDE2D101
:102B2000B9B5C4CAFDBEDD200D0A0000BDE2D1B9B1
:102B300020256C7520D7D6BDDACEAA20256C75204D
:102B4000D7D6BDDAA3ACBAC4CAB1256475730D0A71
:102B500000000000B2E2CAD4D1B9CBF5CAA7B0DCFC
:102B60000D0A000090F8341011F0010F06D0016832
:102B7000826B4B6823F400331A434A6090F8341098
:102B800011F0020F06D00168C26B4B6823F480334A
:102B90001A434A6090F8341011F0040F06D001680F
:102BA000026C4B6823F480231A434A6090F8341077
:102BB00011F0080F06D00168426C4B6823F4004303
:102BC0001A434A6090F8341011F0100F06D00168D3
:102BD000826C8B6823F480531A438A6090F8341017
:102BE00011F0200F06D00168C26C8B6823F40053EB
:102BF0001A438A6090F8341011F0400F11D0016828
:102C0000026D4B6823F480131A434A60016DB1F5DD
:102C1000801F06D10168426D4B6823F4C0031A433C
:102C20004A6090F8341011F0800F08BF70470168B7
:102C3000806D4A6822F40022104348607047F8B55E
:102C400000250446C567FDF7F5FD074620686FF0CF
:102C50007E46006810F0080F08D000223B464FF473
:102C600000112046009600F077FB68B920680068E4
:102C700010F0040F0AD000223B464FF4800120469A
:102C8000009600F069FB08B10320F8BD202084F80D
:102C9000790084F8785084F87A000020F8BD0000AC
:102CA0002DE9F04F0446C669836887B00268816ADF
:102CB000D4E90405DFF8F0C343EA000745EA06005B
:102CC00016683843F94B0843802506EA0C0C0021AE
:102CD0004CEA0000106020688946E268D0F804C021
:102CE0002CF4405C4CEA02024260D4F800C0A069B7
:102CF0009C451CBF226A1043A26AB2F1005F03D157
:102D0000D4E90B2632431043DCF80870E84A27F474
:102D1000306727F06E473843CCF808002068D4F8B5
:102D200024C0C76A27F00F0747EA0C0CC0F82CC074
:102D30002068A0F18046B6F588362FD0A0F1804CEF
:102D4000BCF5884C3BD0A0F1804CBCF5904C40D0F9
:102D5000A0F1804CBCF5984C45D0A0F1804CBCF55E
:102D6000A04C4AD0A0F1804CBCF58A3C4FD0A0F1D9
:102D7000804CBCF5F04C5ED0A0F1804CBCF5F84C1A
:102D800063D0984278D1121D126802F00702062A19
:102D900072D2DFE802F066686A6C6E70126802F048
:102DA0003802182A63D005DCEAB3082A5BD0102A5F
:102DB0005BD061E0202A5CD0282A5CD05CE01268FD
:102DC00002F00702062A57D2DFE802F0494D4F51C0
:102DD0005355126802F00702062A4DD2DFE802F0CE
:102DE0003F434547494B126802F00702062A43D287
:102DF000DFE802F035393B3D3F41126802F007023F
:102E0000062A39D2DFE802F02B2F3133353712682A
:102E100002F03802182A2AD006DC22B1082A22D071
:102E2000102A22D028E004E0202A22D0282A22D00A
:102E300022E0012520E0126802F00702062A1BD2D8
:102E4000DFE802F00D1113151719126802F00702DE
:102E5000062A11D2DFE802F00307090B0D0F002547
:102E60000AE0022508E0042506E0402504E00825E4
:102E700002E0102500E020258E4F8F4E9842DFF8AB
:102E80003C8240F02181102D08BF8D481ED006DC09
:102E9000022D0CD0042D0DD0082D24D01FE0202DA4
:102EA00008BF4FF4004011D0402D08D017E0FDF7C7
:102EB000BDFD08E06846FDF7CFFD019803E003A8DB
:102EC000FDF786FE0498002800F04082D4F804A0A4
:102ED0000AEB4A01814298BFB0EB0A3F11D94FF08B
:102EE000010900F033BAD8F8000010F0200F1DBF20
:102EF000D8F80000C0F3C10026FA00F03046E2D155
:102F0000E4E7102D4FF0000B7ED006DC022D13D02D
:102F1000042D28D0082D5AD003E0202D75D0402D47
:102F20003CD04FF001096749A0F540728A4298BF32
:102F3000216840F2A581D2E7FDF778FD626A00239F
:102F4000594637F81220FDF7C3F9626809020346B3
:102F500041EA106150081B021818002341EB0B01D5
:102F6000FDF7B6F9DFE76846FDF776FD616A0023F5
:102F7000019837F811201946FDF7AAF9034662684F
:102F80004FEA012C190E50081B0218184CEA0101D7
:102F9000002341EB0B01FDF79BF9C4E703A8FDF704
:102FA00017FE616A0023049837F811201946FDF7CF
:102FB0008FF9626803460D0219025008081845EAA5
:102FC000136343EB0B010023FDF782F9ABE7D8F85D
:102FD000000010F0200F1ED0D8F800000023616A16
:102FE000C0F3C10037F81120194626FA00F0FDF7AA
:102FF0006FF902460B02110E120219434FEA5A00F2
:10300000101841EB0B0101E01DE034E000235246B3
:10301000FDF75EF987E7606A0023194637F810204C
:103020003046FDF755F902464FEA012C11024FEAEE
:103030005A0008184CEA126242EB0B015246002378
:10304000FDF746F96FE7606A0023194637F810204C
:103050001B48FDF73DF902464FEA012C11024FEAE9
:103060005A0008184CEA126242EB0B015246002348
:10307000FDF72EF957E7606A0023194637F810204C
:103080004FF40040FDF724F902464FEA012C1102EB
:103090004FEA5A0008184CEA126242EB0B01524602
:1030A0000023FDF715F93EE7F369FFCF000C005848
:1030B00054440258205300080090D00300440258A2
:1030C00000093D00FFFC0F00E3694FF40042B3F537
:1030D000004F1BD0082D76D076DC002D75D0012D49
:1030E00074D0042D7FF4FBAE6846FDF7B5FC626A30
:1030F0000199D4E9003037F81220B1FBF2F101EB6D
:103100005001B1FBF0F080B2D8601FE1082D5ED015
:1031100005DCA5B1012D23D0042D32D005E0102D02
:103120007CD0202D79D0402D3CD04FF0010900BF3C
:1031300021F00F002268C1F342010843C4E0FEF70A
:10314000D3FB0146606A07EB400260681288B1FB5E
:10315000F2F1490001EB5001B1FBF0F081B2E7E779
:10316000FEF7ECFB0146606A07EB400260681288DC
:10317000B1FBF2F1490001EB5001B1FBF0F081B27B
:10318000D6E76846FDF768FC626A0199606837F81F
:103190001220B1FBF2F1490001EB5001B1FBF0F05C
:1031A00081B2C5E703A8FDF713FD626A0499606860
:1031B00037F81220B1FBF2F1490001EB5001B1FBED
:1031C000F0F081B2B4E781E043E05BE06CE0D8F876
:1031D0000000616A10F0200F12D0D8F8002007EB31
:1031E00041036068C2F3C1011A8826FA01F1B1FBFC
:1031F000F2F1490001EB5001B1FBF0F081B297E729
:1032000037F811106068B6FBF1F1490001EB50018D
:10321000B1FBF0F081B28BE700E00DE0626A4D494E
:10322000606837F81220B1FBF2F1490001EB500160
:10323000B1FBF0F081B27BE7616A606837F811108A
:10324000B2FBF1F1490001EB5001B1FBF0F081B2AA
:103250006EE7102D60D0202D6CD0402D7FF43FAE56
:1032600003A8FDF7B5FC636A049AD4E9001037F8A7
:103270001330B2FBF3F202EB5002B2FBF0F080B27B
:10328000C86063E0FEF730FB0146606A07EB40036D
:10329000D4E900201B88B1FBF3F101EB5001B1FB35
:1032A000F0F080B2D06051E0FEF748FB0146606A62
:1032B00007EB4003D4E900201B88B1FBF3F101EBDD
:1032C0005001B1FBF0F080B2D0603FE0D8F80010C0
:1032D000626A11F0200F13D0D8F8003007EB420CCF
:1032E0006168C3F3C102BCF8003026FA02F2B2FBF7
:1032F000F3F202EB5102B2FBF1F189B2C16025E0B9
:1033000037F812206168B6FBF2F202EB5102B2FB11
:10331000F1F189B2C16019E0636A0E4A616837F859
:103320001330B2FBF3F202EB5102B2FBF1F189B2BE
:10333000C1600BE0636A616837F81330B2FBF3F2E7
:1033400002EB5102B2FBF1F189B2C16007B048460D
:10335000BDE8F08F00093D002DE9F041044600680A
:1033600098461546069F0E46C06931EA00000CBF1C
:1033700001200020A84227D1B7F1FF3F1BD02FB179
:10338000FDF758FAA0EB0800B84214D920682021B4
:103390000022036823F4D07303602068836823F05D
:1033A0000103836084F8791084F87A10032084F88C
:1033B0007820BDE8F0812068C06936EA00000CBFC3
:1033C00001200020A842D7D00020BDE8F0810000F5
:1033D0002DE9F041534C00262068C56907688168D3
:1033E00015F0200F17D0808CE28AA168C0B28854F3
:1033F000E18A491C89B2E182E2898A4298BFE68269
:10340000618B92B2914202D2618B491C6183616AE5
:10341000002918BF884715F0800F18BF17F0800FDC
:1034200017D0A08A002866D04FF0010084F8280049
:10343000618A60682268405C1085608A00F1010042
:1034400080B26082A189884228BF6682A08A401E1D
:10345000A08215F0400F18BF17F0400F12D0A08ABD
:10346000002853D0618A60682268405C1085608AB9
:10347000401C80B26082A189884228BF6682A08AEF
:10348000401EA0822068016A41F0010101622068AB
:10349000016A41F0020101622068016A41F0040101
:1034A00001622068016A41F0080101622068016A36
:1034B00041F0100101622068016A41F0400101629F
:1034C0002068016A41F4807101622068016A41F458
:1034D000007101622068016A41F4003101622068D4
:1034E000016A41F4801101622068016A41F0200103
:1034F0000162BDE8F0812068016821F0800101606F
:103500002068016841F040010160A2E7206801687D
:1035100021F040010160206A002818BF804784F82C
:103520002860AFE768A60120FEE700000FB4054B56
:1035300010B503A9044A029800F0F0F810BC5DF839
:1035400014FB0000CB4500083C000020002804BF0D
:103550004FF0FF3070472DE9F003B1F1FF3FDDE997
:103560000954DDE90776DDF82CC0DDF8188018BFB6
:10357000022904D0BDE8F0034FF0FF307047B2F1EC
:10358000FF3F18BF042AF5D1B3F1FF3F18BF042B4A
:10359000F0D1B8F1FF3F18BFB8F1040FEAD1B7F18D
:1035A000FF3F18BF042FE5D1B6F1FF3F18BF042E2F
:1035B000E0D1B5F1FF3F18BF042DDBD1B4F1FF3FDF
:1035C00018BF042CD6D1BCF1FF3F18BFBCF1180FB7
:1035D000D0D1BDE8F00300F00FB802E008C8121F18
:1035E00008C1002AFAD170477047002001E001C1EC
:1035F000121F002AFBD1704730B484B00021009123
:103600009DF80000019100280CBF012200228020BB
:103610008DF80000009B802B0CBF4FF0010C4FF089
:10362000000C012300918DF8003002248DF8034036
:103630000CEA0202BDF80130002B0CBF4FF0010C68
:103640004FF0000CBDF801300CEA0202002B0CBF59
:103650000123002303EA020C8DF80100BDF80120CC
:10366000802A0CBF0124002481228DF8022004EA64
:103670000C0CBDF8014048F280139C420CBF0125A0
:103680000025BDF8014005EA0C0C9C420CBF01234B
:1036900000230324009104258DF800408DF8055087
:1036A00003EA0C01DDF80130002B0CBF4FF0010CD8
:1036B0004FF0000CDDF801300CEA0101002B0CBFCB
:1036C0000123002319408DF80100DDF80100802856
:1036D0000CBF0123002382208DF802208DF8030007
:1036E0004FF0830C8DF804C00B48DDF80120194021
:1036F00082420CBF01230023DDF8012019408242E1
:103700000CBF01200020084214BF00204FF0FF3002
:1037100004B030BC70470000808182832DE9FF4FE8
:103720008DB00F460546002606E025280BD0DDE9C2
:103730000F1290476D1C761C28780028F5D111B027
:103740003046BDE8F08F0024A246A1460122EC4994
:1037500000E0044315F8013F203B02FA03F0084261
:10376000F7D128782A2810D06FF02F022878A0F1FE
:103770003001092914D80AEB8A0102EB410144F017
:10378000020400EB010A6D1CF0E701CF5FEA000ABA
:1037900003D544F40054CAF1000A44F002046D1C3D
:1037A00028782E2817D115F8010F44F004042A2890
:1037B0000ED06FF02F022878A0F1300109290AD825
:1037C00009EB890102EB410100EB01096D1CF2E7F5
:1037D00057F8049B6D1C28786C280FD006DC4C2809
:1037E00017D068280DD06A2814D104E0742810D0AE
:1037F0007A280FD10DE044F400140AE044F4801458
:1038000001E044F440146978814202D104F5801447
:103810006D1C6D1C2A786E2A1FD00CDC632A31D0F7
:1038200004DC002A8BD0582A11D1A3E0642A68D086
:10383000692A0CD165E0732A2ED004DC6F2A73D07C
:10384000702A04D19BE0752A6FD0782A6ED010467A
:10385000DDE90F129047761C50E1C4F302500228B4
:1038600006D0032809D0042801CF09D0066045E11D
:1038700001CFF117C0E9006140E101CF06803DE1D1
:1038800006703BE117F8040B8DF8000000208DF85E
:103890000100EB46012003E057F804BB4FF0FF3076
:1038A00061074FF0000102D40DE008F101018846E4
:1038B00049450FDA8045F8DB1BF808100029F4D1E0
:1038C00008E008F1010188468142FADB1BF8081084
:1038D0000029F6D1DDE90F23AAEB08008146214635
:1038E00000F036F9304400EB080604E0DDE90F1281
:1038F0001BF8010B9047B8F10108F7D22146484662
:10390000F7E00A21C4F302534FF0000B0891022B99
:1039100004D001CFC117032B09D00AE0FF1D27F007
:103920000707F7E8020108E032E01FE020E000B2FC
:10393000C117042B01D140B2C117031E71F100035E
:1039400007DA4FF0000CD0EB0C006CEB01012D23DB
:1039500002E0230504D52B238DF82430012303E056
:10396000E30701D02023F7E7984658E00A2110E04A
:1039700010210EE010204FF0000B08900CE01021F9
:103980004FF0000B44F004044FF00809089103E0E5
:1039900008214FF0000B0891C4F30253022B04D00E
:1039A00001CF0021032B06D006E0FF1D27F00707FB
:1039B000F7E8020103E080B2042B00D1C0B24FF05F
:1039C000000823072BD5702A07D0DDF820C08CF023
:1039D000100C5CEA0B0C05D00EE040238DF824306F
:1039E000012308E050EA010306D030238DF824308B
:1039F0008DF8252002239846DDF820C08CF0080CB5
:103A00005CEA0B0C0BD150EA010301D1630706D528
:103A100030238DF824304FF00108A9F10109582A0C
:103A200004D038A20B9208AA0A920BE03AA2F9E756
:103A30005B46089AFCF74CFC0B9B9B5C0A9A521E57
:103A40000A92137050EA0102F2D10A98ADEB00001D
:103A500000F1200B600702D524F4803401E04FF020
:103A60000109D94502DDA9EB0B0000E0002000EBC5
:103A70000B0141440890AAEB010AE00306D4DDE9FA
:103A80000F232146504600F063F806444FF000092A
:103A900008E009A911F80900DDE90F12904709F1C2
:103AA0000109761CC145F4DBE0030CD5DDE90F23E9
:103AB0002146504600F04CF8064404E0DDE90F12C0
:103AC00030209047761C0899481E08900029F5DCA4
:103AD00008E00A980A990078491C0A91DDE90F125A
:103AE0009047761CBBF10001ABF1010BF1DC2146E4
:103AF0005046DDE90F2300F019F806446D1C1BE663
:103B000009280100303132333435363738396162B3
:103B10006364656600000000303132333435363777
:103B20003839414243444546000000002DE9F04148
:103B3000044600251E461746880404D405E039468D
:103B40002020B0476D1C641EF9D52846BDE8F081E1
:103B50002DE9F041044600251E469046C80301D5D4
:103B6000302700E02027880404D505E04146384688
:103B7000B0476D1C641EF9D52846BDE8F0810000F1
:103B8000042807D200EB4001054800EB8100417892
:103B9000012901D0002070470021417001207047A9
:103BA00038A601200749887ACA7A904204BF0020CB
:103BB0007047421C085CD2B20A2A8A7224BF0022D3
:103BC0008A72704728A60120704700002DE9F04353
:103BD0009DB0FCF79DFE01258DF80F5012208DF849
:103BE000080000248DF80E5003268DF80B608DF828
:103BF00000504FF010518DF80D4068468DF80A5076
:103C000001918DF801408DF809408DF80C40FCF7CA
:103C10004FFE0F218DF808108DF80F5070078DF8AA
:103C20000B608DF80E408DF800508DF80D408DF82A
:103C30000A40019068468DF801508DF809408DF8D2
:103C40000C40FCF735FE0420FCF772FE4C4F386840
:103C500010F4003F11D1BFF34F8FBFF36F8F49486E
:103C60000460BFF34F8FBFF36F8F386840F40030AC
:103C70003860BFF34F8FBFF36F8F386810F4803F09
:103C800022D141480460BFF34F8F001F43F6FF78F5
:103C900000683E49C0F34E33C0F3C90C08EA431232
:103CA000604600BF42EA8079C1F80090401EF9D218
:103CB0005B1EF3D2BFF34F8F386840F4803038601A
:103CC000BFF34F8FBFF36F8FFCF7C2FD3048016821
:103CD00021F0040101602F48016841F44041016076
:103CE000016801F440411391016811F4005FFBD0B9
:103CF0000220039405210794C3030990A022CDE973
:103D00000C20CDE90053CDE90A0104230827CDE9B1
:103D10000E30CDE910746846FDF70AFF00B1FEE7EA
:103D2000402016943F210201CDE91770CDE9190218
:103D3000CDE9141604211B9014A8FDF7B9FC00B1BD
:103D4000FEE71548016841F08001016013480168F1
:103D500041F002010160006800F002001390FCF7DE
:103D600039FC00F01DF800F03FF900F0D9F900F03F
:103D70000DFA00F027F81DB0BDE8F04300F0BCB923
:103D800014ED00E050EF00E084ED00E060EF00E0B3
:103D90000C4802581848025800440258F44402588B
:103DA000064907480B68002243F080730B604260AD
:103DB000016841F00101016070470000FCED00E086
:103DC000001000E0474870B59AB0016841F0080162
:103DD0000160016801F008010591016841F01001DE
:103DE0000160016801F010010591016841F0400196
:103DF0000160016801F040010591016841F0800116
:103E00000160016801F080010591016841F4807151
:103E10000160006800F4807005903348016841F447
:103E2000805101600068022401254CF2B37100F456
:103E30008050059003260C2004908DE872002B48DA
:103E40006946FCF7CFFB4FF6807000902848694622
:103E5000FCF7C8FB274869460096FCF7C3FB4FF404
:103E60007F40009024486946FCF7BCFB40F2CF60DD
:103E7000009022486946FCF7B5FB4C216846FCF7E8
:103E800072FA204A05211E4B0020CDE90032CDE90F
:103E90001314CDE9154520221794CDE91840D1011E
:103EA0000390CDE90402029013AACDE9080106901F
:103EB000114607900A900B900C900D900E9068465A
:103EC000FEF712F920B110A04FF49171FCF7D1FA6E
:103ED000154840F6147215490260006808601AB06F
:103EE00070BD0000E0440258D4440258000C02584F
:103EF0000010025800180258001C025800200258F6
:103F000000400052044100522E2E5C2E2E5C557350
:103F100065725C6273705C7372635C6273705F661F
:103F20006D635F696F2E63001C000020001000604D
:103F300010B592B000204FF08042029003900490A0
:103F4000059006900790089009900A900B900C90AD
:103F50000D900E900F901090119018490B6843F03F
:103F600001030B6009684FF0800C154C01F0010152
:103F7000019114490B68411E0292CDE905105B08BE
:103F8000B3FBF4F35A1E92B2CDE90320CDE9070C3E
:103F900002A8FEF7F1F820B14FF40C710AA0FCF76B
:103FA00068FA022200211C20FCF7E4FC1C20FCF72C
:103FB000D2FC02A8FEF7FCF812B010BDE84402588B
:103FC00040420F002C0000202E2E5C2E2E5C5573DC
:103FD00065725C6273705C7372635C6273705F7451
:103FE000696D65722E630000F0B53F4A002087B00E
:103FF000A2F1A00101F108049072A31CD072642701
:104000000A2510735A1C022601F1040C11F10C014F
:1040100024F8107B6D1E0CF8106B03F8100B02F8DF
:10402000100B01F8100BF3D1DFF8C0C06422062397
:104030002F49ACF838208CF83B3013468CF83C0004
:104040000622ACF8483006238CF84B2064228CF80A
:104050004C00ACF858208CF85B3013468CF85C00B0
:104060000622ACF868308CF86B208CF86C000A687B
:1040700042F002020A600A6802F0020205920A682F
:1040800042F004020A600A6802F0040205920A681B
:1040900042F040020A600A6802F0400205920A6893
:1040A00042F080020A600A6802F0800205920A6803
:1040B00042F480720A6009680E4D01F48071059126
:1040C000032101900024CDE9020100BF05EBC400EB
:1040D0008188009169460068FCF784FA601CC4B2CC
:1040E000082CF3D307B0F0BD28A6012088A5012035
:1040F000E0440258B0520008012110B50802FEF752
:10410000A5F801214802FEF7A1F801218802FEF777
:104110009DF80121BDE81040C802FEF797B80000E5
:10412000164900204860886048700870086148613E
:1041300048730873C8610862487608768862C86266
:1041400081F8250081F824004FF47A710C4A126836
:10415000B2FBF1F14A1EB2F1807F09D24FF0E021AB
:104160004A61F022074B83F8142D072288610A6107
:10417000012005494870FFF7DBBE000038A601208A
:104180002C0000200FE000E0000000202DE9F04F9F
:104190004C48D5B04A4E4FF4806800F12C01002401
:1041A000C0E9006100F22C418160A0F80C80A0F809
:1041B0000E8004824482C482048344838482012763
:1041C000C4610462446280F8284020A820973E948D
:1041D000FCF7BAFD3C4D286840F0010028602868D3
:1041E00000F001000090286840F001002860286875
:1041F00000F0010000903548016841F010010160B5
:10420000006802214FF00309DFF8C4B000F010008D
:10421000009070154FF0070ACDE94F01CDF84CA181
:104220004FA9CDE951795846FCF7DCF94FA958461A
:10423000CDF84CA1CDF83C81FCF7D4F90122002146
:104240002520FCF797FB2520FCF785FB4FF4E13197
:104250000096CDE901140C2003940494CDE90504E3
:1042600007946846089409940A940B940C940D944E
:10427000FDF7ABFF20B1174840F22731FCF7F9F802
:10428000306A40F040003062308B40F008003083EC
:10429000306840F020003060286840F0020028605C
:1042A00028686946CDE9024900F002000590042023
:1042B000CDE900070848FCF795F955B0BDE8F08F47
:1042C0000010014068A60120E0440258F044025862
:1042D0000000025888440008000402582DE9F04705
:1042E000DFF8FC9000254FF0010A4FF0050809F1B6
:1042F000A0062F4609EB05142846FEF733F80028E0
:10430000207949D0052838BF84F8048061D30A2871
:104310003CBF401C20715CD3A07A68B984F80AA025
:1043200005EB4500F17A401C7054F07A401CC0B295
:10433000F0720A2828BFF7722089002849D0E18846
:10434000814211D2491C80B289B2E180814240D1C0
:10435000F17A05EB4500C01C7054F07A401CC0B2E5
:10436000F0720A2835D315E0E07A002831D0217B9D
:10437000C0B2491CC9B2217381422AD3277305EB0D
:104380004500F17A401C7054F07A401CC0B2F072C3
:104390000A281ED3F7721CE0052888BF84F8048021
:1043A00015D800280DBFA07A401E207101280ED11B
:1043B000A77205EB4500F17A00F102007054F07A23
:1043C00000F10100C0B2F0720A2828BFF772E7803E
:1043D0002773681CC5B20A2D8CD3BDE8F087000096
:1043E00088A50120012810B508BF4FF480740ED0B5
:1043F000022808BF4FF4007409D0032808BF4FF407
:10440000806404D004280CBF4FF4006410BD204623
:10441000FDF714FF28B12046BDE810400021FDF74C
:1044200015BF2046BDE810400121FDF70FBFFFF783
:1044300055BF70474DF804EDA1B04FF0000C00904F
:104440006846CDE9011CCDE903C2CDE9053CCDF8B4
:104450001CC0CDF820C0CDF824C0CDF828C0CDF8C0
:104460002CC0CDF830C0CDF834C0FDF7AEFE00282A
:1044700004BF21B05DF804FB40F2273102A0FBF736
:10448000F8FF21B05DF804FB2E2E5C2E2E5C5573D8
:1044900065725C6273705C7372635C6273705F758B
:1044A0006172745F6669666F2E63000010B5042840
:1044B00005D30C4A0CA114A0FFF738F8FEE701223F
:1044C00082F31088184A00EB400C002302EB8C00AA
:1044D000012441608160437002F82C4083F310880E
:1044E00010BD0000FF5200082E2E5C2E2E5C55736E
:1044F00065725C6273705C7372635C6273705F742C
:10450000696D65722E6300004572726F723A2066A3
:10451000696C652025732C2066756E6374696F6EF7
:1045200020257328290D0A0038A60120F8B5154664
:104530000E46FBF77DFF040008BFF8BDE0690028C8
:1045400018BF8047002D4FF0000088BF002228D9F7
:10455000012181F31088A18AADF80010002181F3B8
:104560001088BDF80030A189994220D9315CB4F897
:1045700010C0636803F80C10012181F31088218AB0
:10458000A389491C89B221828B4298BF2282A18AC9
:10459000491CA182002181F31088401C80B2A842EE
:1045A000D6D32068016841F080010160F8BDBDF8F4
:1045B00000309942CCD121680B6813F0800FC7D12D
:1045C0000B6843F080030B60C2E738B504466946C8
:1045D000002001228DF80040FFF7A8FF204638BDDB
:1045E0002DE9FF4F89B04FF000040B9805900A9811
:1045F000DDF824901428009041D9B0F5404F029086
:1046000084BF4FF4404002904844029903902144F3
:1046100000EB5111884232D2169800214FF400422B
:10462000FBF7A3FE0398042C059ACDF81890A0F18F
:10463000140E169901940492CDE907102CBF0020A6
:10464000C4F1040000EB0904A4EB090004EB6010C2
:10465000441CA6452FD80198A9EB00010898441ADC
:104660000C990498101A0860009ADDE90219511A91
:10467000009105990844059000981428BDD8009829
:1046800014EB000C00F0E681DDE9090142180B99FA
:104690000598A2EB0C07884240F06281BCF1EE0F56
:1046A00000F25E8105990CF1110008700598401C1C
:1046B000059000F096B92068F74B0699DDF81CC00C
:1046C00000FB03F3611A9B0C0CEB4303B3F800C02F
:1046D000198006990CEB010631688142B4D101982A
:1046E000A9EB000100200190601A7DD0032807D8B3
:1046F00012F8023C034302F8023C0968116010E022
:10470000102810D8C31E13700B68C2F801304B6814
:10471000C2F805308B68C2F80930C968C2F80D10BC
:10472000521C02446AE0122803D8C31E02F8013B5F
:104730002EE0A0F112034FF0000CFF2B02F801CB8A
:1047400024D9B3F1004F80F09581DFF85083C3F195
:104750000105AB46E1460127C8FB0B954FEAE51979
:10476000A9EBE5756D42012D10DB91466546521CA3
:10477000DA4689F800C0FF3BC8FB0B5A7F1C4FEAA2
:10478000EA15A5EBEA756D42BD42EEDA02F8013B8F
:104790000B6813604B681038102853608B68936067
:1047A000CB68D36001F1100102F11002F0D2D8B150
:1047B00011F8013B401E02F8013B1FD0B0F1004F41
:1047C00080F06281002819DDA1F1010310F0010FD2
:1047D000A2F1010103D013F801CF01F801CF5FEA84
:1047E000600C9ED05D7800E008E04D70BCF1010CDB
:1047F00013F8025F01F8025FF4D192E76168736811
:10480000042059400FD1001D2158335859400AD176
:10481000001D215856F800C02318734581EA0C0189
:1048200009D20029EFD011F0FF0F04D1090A401C72
:1048300011F0FF0FFAD0A11B04440828A14698BF2D
:10484000B1F5006F0BD8491E400101F00703203875
:10485000C90840EA830010705170921CF9E6B1F566
:10486000804F37D82128A1F1010A05D8801E40F0D9
:1048700020001070501C3AE0A0F121012023137099
:10488000501CFF2923D9B1F1004F80F00981834FDB
:10489000C1F10103002298469446C7FB08C30125D5
:1048A0004FEAE31CACEBE3735B42012B0FDB844666
:1048B0004646401C13468CF80020FF39C7FB0836DB
:1048C0006D1CF311A3EBE6735B42AB42EFDA00F829
:1048D000011B0CE00928A1F5804A10D80821801E90
:1048E00001EADA21084340F010001070501C4FEA32
:1048F0008A014FEA9A1201704270821CA9E60823CD
:10490000A0F1090103EADA2040F010001070FF293D
:1049100002F10100DBD9B1F1004F7DD25F4DC1F151
:1049200001030022984616464FF0010CC5FB0863B0
:10493000DE11A6EBE3735B42012BC8DB064647465C
:10494000401C13463270FF39C5FB08370CF1010CCF
:10495000FB11A3EBE7735B426345EFDAB7E700BFF8
:10496000BCF1030F07D8059910F8020C40EA0C00BF
:1049700001F8020C35E0BCF1120F06D80599ACF134
:10498000030008700598401C2AE005990023ACF14B
:1049900012000B700599491CFF281FD9B0F1004F78
:1049A00071D23E4EC0F1010290461C460125C6FB65
:1049B0000842D411A4EBE2725242012A0EDB0A46ED
:1049C0004446491C99461370FF38C6FB08946D1C79
:1049D000E211A2EBE4725242AA42F0DA0870481CDB
:1049E00005906146059806E03A6802607A68426080
:1049F0000830083908370829F6D2042904D357F8B3
:104A0000042B40F8042B091F09B33B787A1C491E7C
:104A100000F8013B1BD000E04BE0B1F1004F59D250
:104A2000002914DD11F0010FA0F10103A2F1010230
:104A300003D012F8010F03F8010F481007D0517886
:104A4000401E597012F8021F03F8021FF7D1059893
:104A5000604405900598112200210270059841706C
:104A60008170C01C0B99411A0C9801600DB0002098
:104A7000BDE8F08F1546FF3BFF2B02F1010285F8E0
:104A800000C0F7D882E61DE011F8013B401E02F895
:104A9000013BF9D1B2E600009D422418818080805C
:104AA00000230246FF39FF2900F101001370F8D8F6
:104AB0000DE700230246FF39FF2900F101001370C2
:104AC000F8D804E70A46FF38FF2801F10101137006
:104AD000F8D883E712F8013B491E00F8013BF9D1F1
:104AE000B5E700002DE9F00100241C6045180178AD
:104AF000944611292BD9401C11390429C0F0B281E8
:104B000010F8014B491E8CF8004002F1010C76D0E0
:104B1000B1F1004F80F0BA81002970DD11F0010F72
:104B2000A0F10106ACF1010403D016F8017F04F8EE
:104B3000017F4F1062D000BF96F801807F1E84F87D
:104B4000018016F8028F04F8028FF5D17CE010F88E
:104B5000011B10297ED251B9047824B910F8014FF5
:104B6000FF31002CFAD00F31E4B2401C214450F840
:104B7000044B491E4CF8044B68D0042940D350F82C
:104B8000044B091F03294CF8044B13D9B1F1004F12
:104B900080F084814E420124F71706EB9776B61019
:104BA000764205E050F8047B4CF8047B091F641C36
:104BB000A642F7DA19B310F8014B491E0CF8014B65
:104BC00044D0B1F1004F80F0718100293EDD11F039
:104BD000010FA0F10106ACF1010403D016F8017F2A
:104BE00004F8017F4F102FD096F801807F1E84F8C3
:104BF000018016F8028F04F8028FF5D124E025E039
:104C000010F8014B491E0CF8014B1FD0B1F1004FB9
:104C100080F05481002919DD11F0010FA0F1010687
:104C2000ACF1010403D016F8017F04F8017F4F10A6
:104C30000AD000BF96F801807F1E84F8018016F824
:104C4000028F04F8028FF5D108448C4410F8011B40
:104C5000102900E018E017D210F8016BACF601043F
:104C6000A4EB9101A1EB86010C788CF800408C1C20
:104C70004E780CF102018CF8016094F800C081F8C4
:104C800000C001F1010CE6E040290ED310F8017BD1
:104C9000C1F382084FF0FF36ACF10104A4EB080425
:104CA000A4EBC70406EB5111A5E020292FD311F086
:104CB0001F010AD1047824B910F8014FFF31002CEC
:104CC000FAD01F31E4B2401C214430F8026BACF141
:104CD0000104A4EB960406297ED3ACEB0406042E53
:104CE0007ADB26684CF8046B6668891F0834032950
:104CF0004CF8046B58D9B1F1004F6ED24F420126E7
:104D00004FEAE77807EB9877BF107F424AE0102917
:104D100029D301F0080411F00701ACEBC4260AD135
:104D2000047824B910F8014FFF31002CFAD0C91DC6
:104D3000E4B2401C214430F8024BA6EB94046445D5
:104D400018BFA4F58044C6D1A842ACEB020119609B
:104D500088BF6FF0030038BF6FF0070008BF002066
:104D6000BDE8F001704710F8016BACF10104A4EB51
:104D70009101A1EB860101F101040E780CF1010112
:104D80008CF8006094F800C081F800C001F1010CBB
:104D900061E000BF54F8048B4CF8048BA1F10401CE
:104DA00006F10106B742F5DAF1B314F8016B491EBA
:104DB0000CF8016B4FD0B1F1004F6ED200294ADDE3
:104DC000A4F1010611F0010FACF1010403D016F8B3
:104DD000017F04F8017F01E00DE076E04F1039D04B
:104DE00096F801807F1E84F8018016F8028F04F87F
:104DF000028FF5D12EE014F8016B8CF800600CF1F5
:104E00000106491E27783770677804F102048CF890
:104E100002700CF1030C1ED0B1F1004F64D20029D6
:104E200019DD11F0010F00E015E0A4F10106ACF16D
:104E3000010403D016F8017F04F8017F4F1009D058
:104E400096F801807F1E84F8018016F8028F04F81E
:104E5000028FF5D18C4410F8021C11F003013FF4CD
:104E600076AE00BF10F8014B01290CF8014B09D9AF
:104E700010F8014B02290CF8014B03D910F8011B63
:104E80000CF8011B10F8011BFEE600BF10F8014BE7
:104E9000491E0CF8014BF9D1D8E61EE050F8044B3E
:104EA000091F04294CF8044BF8D283E610F8014B93
:104EB000491E0CF8014BF9D1C8E600BF10F8014BB0
:104EC000491E0CF8014BF9D1C0E654F8046B091FD8
:104ED00004294CF8046BF8D266E714F8016B491EFC
:104EE0000CF8016BF9D1B6E714F8016B491E0CF808
:104EF000016BF9D1AFE7FBF738BA000086B065491E
:104F0000002008806449088064490880FEF75EFE3E
:104F100063A0FEF70BFB724A111D081D16680D6891
:104F2000046871496F480968B1FBF0F16FA0FEF7A2
:104F3000FDFA7AA033462A462146FEF7F7FA7CA00E
:104F4000FEF7F4FA56A0FEF7F1FA7AA182A0FEF776
:104F5000EDFA86A186A0FEF7E9FA8AA18CA0FEF7F9
:104F6000E5FA90A0FEF7E2FA9AA0FEF7DFFA9BA01E
:104F7000FEF7DCFA9FA0FEF7D9FAA3A0FEF7D6FA57
:104F8000A8A0FEF7D3FAAEA0FEF7D0FAB4A0FEF7C1
:104F9000CDFA43A0FEF7CAFABBA0FEF7C7FABD4898
:104FA000FEF7C4FA64210020FFF780FA0420029083
:104FB00018210346024603900190CDE90401022125
:104FC000009042F2A000FEF7C1FA28B1B2A0FEF7AD
:104FD000ADFAB648FEF7AAFA4FF48060FDF7BCFCC4
:104FE0004FF40060FDF7B8FC4FF44060FDF7B4FCEF
:104FF0004FF48050FDF7B0FC4FF4A050FDF7ACFC2F
:105000004FF4C050FDF7A8FC4FF4E050FDF7A4FCAE
:105010004FF40050FDF7A0FC4FF41050FDF79CFC3E
:105020004FF42050FDF798FC4FF43050FDF794FCFE
:105030004FF44050FDF790FC4FF45050FDF78CFCBE
:105040004FF46050FDF788FC4FF47050FDF784FC7E
:105050004FF48040FDF780FC4FF48840FDF77CFC66
:105060004FF49040FDF778FC4FF49840FDF774FC46
:105070004FF4A040FDF770FCFEF7A6FD0020FEF700
:105080007FFD00281CBF0220FFF7ACF9FEF78AFD68
:10509000F2E70000000000240000003000000038AB
:1050A0002A2A2A2A2A2A2A2A2A2A2A2A2A2A2A2A60
:1050B0002A2A2A2A2A2A2A2A2A2A2A2A2A2A2A2A50
:1050C0002A2A2A2A2A2A2A2A2A2A2A2A2A2A2A2A40
:1050D0002A2A2A2A2A2A2A2A2A2A2A2A2A0A0D0097
:1050E00000E8F11F40420F002C0000200D0A435041
:1050F00055203A2053544D333248373433584948B9
:10510000362C204247413234302C20D6F7C6B53AEF
:105110002025644D487A0D0A0000000055494420BE
:105120003D20253038582025303858202530385833
:105130000A0D000056372D4D696E694C5A4FCEDE70
:10514000CBF0D1B9CBF5CBE3B7A8D2C6D6B2BACDA6
:10515000CAB9D3C3000000002A20C0FDB3CCC3FBF2
:10516000B3C62020203A2025730D0A00312E3000CE
:105170002A20C0FDB3CCB0E6B1BE2020203A2025C5
:10518000730D0A00323031392D30382D31320000A4
:105190002A20B7A2B2BCC8D5C6DA2020203A2025E2
:1051A000730D0A002A2048414CBFE2B0E6B1BE2090
:1051B000203A2056312E332E30202853544D33328E
:1051C000483778782048414C2044726976657229C6
:1051D0000D0A00002A200D0A000000002A2051516B
:1051E000202020203A2031323935373434363330DC
:1051F000200D0A002A20CDFACDFA20203A20617233
:105200006D666C790D0A00002A20456D61696C207D
:105210003A2061726D666C794071712E636F6D20FA
:105220000D0A00002A20CEA2D0C5B9ABD6DABAC585
:105230003A2061726D666C795F636F6D200D0A00B4
:105240002A20CCD4B1A6B5EA3A2061726D666C7999
:105250002E74616F62616F2E636F6D0D0A00000026
:105260002A20436F70797269676874207777772E88
:1052700061726D666C792E636F6D20B0B2B8BBC081
:10528000B3B5E7D7D30D0A00B2D9D7F7CCE1CABE80
:105290003A0D0A00485300084C5A4FB3F5CABCBB3C
:1052A000AFCAA7B0DC200D0A000000008C53000834
:1052B00000200258000100000008025800200000F1
:1052C000001C0258100000000018025804000000E2
:1052D00000040258010000000018025808000000F5
:1052E000001802588000000000200258000800004A
:1052F0006273705F537461727454696D6572006299
:1053000073705F53746172744175746F54696D6525
:1053100072006273705F53746F7054696D657200D0
:10532000010002000400060008000A000C00100042
:105330002000400080000001000000000102030482
:105340000102030406070809312E20CAFDBEDDD183
:10535000B9CBF5BACDBDE2D1B9B2E2CAD4A3ACC7DC
:10536000EBCFC2D4D8B3CCD0F2B2A2D6D8D0C2B888
:10537000F8B0E5D7D3C9CFB5E7A3ACC9CFB5E7BA85
:10538000F3D7D4B6AFB4F2D3A10D0A00D2BBB0E3C9
:10539000CAC7B1E0D2EBD4ECB3C9B5C4B2D9D7F720
:1053A000A3ACBFC9D2D4D6D8D0C2B1E0D2EBA3ACA3
:1053B000B2A2C9E8D6C3B2BBD7F6C8CEBACED3C55F
:1053C000BBAFA3ACCDACCAB1CAB9C4DC2D444C5AF6
:1053D0004F5F4445425547BDF8D0D0B5F7CAD40D0C
:1053E0000A000000345400080000002040000000C3
:1053F000DA3500087454000800000024045000004E
:10540000E003000818550008000000300400000008
:10541000DA3500081C5500080000003804000000C0
:10542000DA350008745400084000002098BE0100DE
:10543000EA35000800000000000000000000000045
:10544000000000000000000000000000000000005C
:10545000000000000100000010000000000000003B
:105460000090D0030090D003000000000000000076
:105470000000000001FF01FF01FF01FF01FF01FF2C
:1054800001FF01FF01FF01FF01FF01FF01FF01FF1C
:1054900001FF01FF01FF01FF01FF01FF01FF01FF0C
:1054A00001FF01FF01FF01FF01FF01FF01FF01FFFC
:1054B00001FF01FF01FF01FF01FF01FF01FF01FFEC
:1054C00001FF01FF01FF01FF01FF01FF01FF01FFDC
:1054D00001FF01FF01FF01FF01FF01FF01FF01FFCC
:1054E00001FF01FF01FF01FF01FF01FF01FF01FFBC
:1054F00001FF01FF01FF01FF01FF01FF01FF01FFAC
:1055000001FF01FF01FF01FF01FF01FF01FF01FF9B
:1055100001FF01FF01A500000000000000000000E5
:040000050800029954
:00000001FF
